{
    "contractName": "CMON",
    "abi": [
        {
            "inputs": [],
            "stateMutability": "nonpayable",
            "type": "constructor"
        },
        {
            "anonymous": false,
            "inputs": [
                {
                    "indexed": true,
                    "internalType": "address",
                    "name": "_owner",
                    "type": "address"
                },
                {
                    "indexed": true,
                    "internalType": "address",
                    "name": "_spender",
                    "type": "address"
                },
                {
                    "indexed": false,
                    "internalType": "uint256",
                    "name": "_value",
                    "type": "uint256"
                }
            ],
            "name": "Approval",
            "type": "event"
        },
        {
            "anonymous": false,
            "inputs": [
                {
                    "indexed": true,
                    "internalType": "address",
                    "name": "_from",
                    "type": "address"
                },
                {
                    "indexed": true,
                    "internalType": "address",
                    "name": "_to",
                    "type": "address"
                },
                {
                    "indexed": false,
                    "internalType": "uint256",
                    "name": "_value",
                    "type": "uint256"
                }
            ],
            "name": "Transfer",
            "type": "event"
        },
        {
            "inputs": [
                {
                    "internalType": "address",
                    "name": "_owner",
                    "type": "address"
                },
                {
                    "internalType": "address",
                    "name": "_spender",
                    "type": "address"
                }
            ],
            "name": "allowance",
            "outputs": [
                {
                    "internalType": "uint256",
                    "name": "remaining",
                    "type": "uint256"
                }
            ],
            "stateMutability": "view",
            "type": "function"
        },
        {
            "inputs": [
                {
                    "internalType": "address",
                    "name": "",
                    "type": "address"
                },
                {
                    "internalType": "address",
                    "name": "",
                    "type": "address"
                }
            ],
            "name": "allowed",
            "outputs": [
                {
                    "internalType": "uint256",
                    "name": "",
                    "type": "uint256"
                }
            ],
            "stateMutability": "view",
            "type": "function"
        },
        {
            "inputs": [
                {
                    "internalType": "uint256",
                    "name": "reqID",
                    "type": "uint256"
                },
                {
                    "internalType": "bool",
                    "name": "status",
                    "type": "bool"
                }
            ],
            "name": "answerRequest",
            "outputs": [],
            "stateMutability": "nonpayable",
            "type": "function"
        },
        {
            "inputs": [
                {
                    "internalType": "address",
                    "name": "_spender",
                    "type": "address"
                },
                {
                    "internalType": "uint256",
                    "name": "_value",
                    "type": "uint256"
                }
            ],
            "name": "approve",
            "outputs": [
                {
                    "internalType": "bool",
                    "name": "success",
                    "type": "bool"
                }
            ],
            "stateMutability": "nonpayable",
            "type": "function"
        },
        {
            "inputs": [
                {
                    "internalType": "address",
                    "name": "_owner",
                    "type": "address"
                }
            ],
            "name": "balanceOf",
            "outputs": [
                {
                    "internalType": "uint256",
                    "name": "balance",
                    "type": "uint256"
                }
            ],
            "stateMutability": "view",
            "type": "function"
        },
        {
            "inputs": [
                {
                    "internalType": "address",
                    "name": "",
                    "type": "address"
                }
            ],
            "name": "balances",
            "outputs": [
                {
                    "internalType": "uint256",
                    "name": "",
                    "type": "uint256"
                }
            ],
            "stateMutability": "view",
            "type": "function"
        },
        {
            "inputs": [],
            "name": "buy",
            "outputs": [],
            "stateMutability": "payable",
            "type": "function"
        },
        {
            "inputs": [],
            "name": "calcPhase",
            "outputs": [
                {
                    "internalType": "enum CMON.phases",
                    "name": "phase",
                    "type": "uint8"
                }
            ],
            "stateMutability": "view",
            "type": "function"
        },
        {
            "inputs": [
                {
                    "internalType": "uint256",
                    "name": "microetherAmount",
                    "type": "uint256"
                }
            ],
            "name": "changePublicCost",
            "outputs": [],
            "stateMutability": "nonpayable",
            "type": "function"
        },
        {
            "inputs": [],
            "name": "decimals",
            "outputs": [
                {
                    "internalType": "uint8",
                    "name": "",
                    "type": "uint8"
                }
            ],
            "stateMutability": "view",
            "type": "function"
        },
        {
            "inputs": [],
            "name": "getRequests",
            "outputs": [
                {
                    "components": [
                        {
                            "internalType": "uint256",
                            "name": "id",
                            "type": "uint256"
                        },
                        {
                            "internalType": "string",
                            "name": "name",
                            "type": "string"
                        },
                        {
                            "internalType": "address",
                            "name": "userAddr",
                            "type": "address"
                        }
                    ],
                    "internalType": "struct CMON.Request[]",
                    "name": "requests",
                    "type": "tuple[]"
                }
            ],
            "stateMutability": "view",
            "type": "function"
        },
        {
            "inputs": [
                {
                    "internalType": "address",
                    "name": "user",
                    "type": "address"
                }
            ],
            "name": "getRoleID",
            "outputs": [
                {
                    "internalType": "enum CMON.roles",
                    "name": "",
                    "type": "uint8"
                }
            ],
            "stateMutability": "view",
            "type": "function"
        },
        {
            "inputs": [],
            "name": "getState",
            "outputs": [
                {
                    "components": [
                        {
                            "internalType": "uint256",
                            "name": "time_start",
                            "type": "uint256"
                        },
                        {
                            "internalType": "uint256",
                            "name": "time_now",
                            "type": "uint256"
                        },
                        {
                            "internalType": "uint256",
                            "name": "time_system",
                            "type": "uint256"
                        },
                        {
                            "internalType": "uint256",
                            "name": "time_dif",
                            "type": "uint256"
                        },
                        {
                            "internalType": "enum CMON.phases",
                            "name": "phase",
                            "type": "uint8"
                        }
                    ],
                    "internalType": "struct CMON.State",
                    "name": "",
                    "type": "tuple"
                }
            ],
            "stateMutability": "view",
            "type": "function"
        },
        {
            "inputs": [],
            "name": "init",
            "outputs": [],
            "stateMutability": "nonpayable",
            "type": "function"
        },
        {
            "inputs": [],
            "name": "name",
            "outputs": [
                {
                    "internalType": "string",
                    "name": "",
                    "type": "string"
                }
            ],
            "stateMutability": "view",
            "type": "function"
        },
        {
            "inputs": [
                {
                    "internalType": "address",
                    "name": "_to",
                    "type": "address"
                },
                {
                    "internalType": "uint256",
                    "name": "_amount",
                    "type": "uint256"
                }
            ],
            "name": "reward",
            "outputs": [],
            "stateMutability": "nonpayable",
            "type": "function"
        },
        {
            "inputs": [
                {
                    "internalType": "string",
                    "name": "name",
                    "type": "string"
                }
            ],
            "name": "sendRequest",
            "outputs": [],
            "stateMutability": "nonpayable",
            "type": "function"
        },
        {
            "inputs": [],
            "name": "symbol",
            "outputs": [
                {
                    "internalType": "string",
                    "name": "",
                    "type": "string"
                }
            ],
            "stateMutability": "view",
            "type": "function"
        },
        {
            "inputs": [],
            "name": "time_now",
            "outputs": [
                {
                    "internalType": "uint256",
                    "name": "",
                    "type": "uint256"
                }
            ],
            "stateMutability": "view",
            "type": "function"
        },
        {
            "inputs": [],
            "name": "time_system",
            "outputs": [
                {
                    "internalType": "uint256",
                    "name": "",
                    "type": "uint256"
                }
            ],
            "stateMutability": "view",
            "type": "function"
        },
        {
            "inputs": [],
            "name": "totalSupply",
            "outputs": [
                {
                    "internalType": "uint256",
                    "name": "",
                    "type": "uint256"
                }
            ],
            "stateMutability": "view",
            "type": "function"
        },
        {
            "inputs": [
                {
                    "internalType": "address",
                    "name": "_to",
                    "type": "address"
                },
                {
                    "internalType": "uint256",
                    "name": "_value",
                    "type": "uint256"
                }
            ],
            "name": "transfer",
            "outputs": [
                {
                    "internalType": "bool",
                    "name": "success",
                    "type": "bool"
                }
            ],
            "stateMutability": "nonpayable",
            "type": "function"
        },
        {
            "inputs": [
                {
                    "internalType": "address",
                    "name": "_from",
                    "type": "address"
                },
                {
                    "internalType": "address",
                    "name": "_to",
                    "type": "address"
                },
                {
                    "internalType": "uint256",
                    "name": "_value",
                    "type": "uint256"
                }
            ],
            "name": "transferFrom",
            "outputs": [
                {
                    "internalType": "bool",
                    "name": "success",
                    "type": "bool"
                }
            ],
            "stateMutability": "nonpayable",
            "type": "function"
        },
        {
            "inputs": [
                {
                    "internalType": "uint256",
                    "name": "amount",
                    "type": "uint256"
                }
            ],
            "name": "upDif",
            "outputs": [],
            "stateMutability": "nonpayable",
            "type": "function"
        }
    ],
    "bytecode": "60806040526000600855600060095564e8d4a51000600a55600a546102ee62000029919062000251565b600b55600a546200003d906103e862000251565b600c55620f4240601055622dc6c0601155625b8d80601255622dc6c0601455625b8d806015553480156200007057600080fd5b50604080518082018252600d81526c21b93cb83a37a6b7b739ba32b960991b60208083019190915282518084018452600481526321a6a7a760e11b81830152336000908152918290529290206298968090819055600281905591600c906003620000db84826200031c565b506004805460ff191660ff84161790556005620000f982826200031c565b5050505050620001133062989680620001e360201b60201c565b5060068054738a6dc83c48829e6aa19bb457c7ade3a83cbbde406001600160a01b031990911617905560076020527f427ad6d0855ff6b40a63b94c22385eb84c84ec203a612e39326eb54f3081b049805460ff199081166001179091557ff5987aaab45ddda0ece520c24c0212efb61dec0f2f74ef87a98a515a28d0b13f805482166002179055735496320b868c43f87d24b42edebb8e7b27f3df636000527fd27f69151b91b30ef048552fe4f256e4b394f667e80dd5796e08fc10977bcfcc80549091166003179055620003e8565b3360008181526001602090815260408083206001600160a01b038716808552925280832085905551919290917f8c5be1e5ebec7d5bd14f71427d1e84f3dd0314c0f7b2291e5b200ac8c7c3b925906200023f9086815260200190565b60405180910390a35060015b92915050565b80820281158282048414176200024b57634e487b7160e01b600052601160045260246000fd5b634e487b7160e01b600052604160045260246000fd5b600181811c90821680620002a257607f821691505b602082108103620002c357634e487b7160e01b600052602260045260246000fd5b50919050565b601f8211156200031757600081815260208120601f850160051c81016020861015620002f25750805b601f850160051c820191505b818110156200031357828155600101620002fe565b5050505b505050565b81516001600160401b0381111562000338576200033862000277565b62000350816200034984546200028d565b84620002c9565b602080601f8311600181146200038857600084156200036f5750858301515b600019600386901b1c1916600185901b17855562000313565b600085815260208120601f198616915b82811015620003b95788860151825594840194600190910190840162000398565b5085821015620003d85787850151600019600388901b60f8161c191681555b5050505050600190811b01905550565b61193a80620003f86000396000f3fe60806040526004361061014b5760003560e01c80635c658165116100b6578063a9059cbb1161006f578063a9059cbb146103e7578063b2adc1d914610407578063c9bcee3d14610427578063d34477d11461043c578063dd62ed3e1461045c578063e1c7392a146104a257600080fd5b80635c6581651461032757806370a082311461035f5780638813ce1214610395578063916e967f146103b757806395d89b41146103ca578063a6f2ae3a146103df57600080fd5b806323b872dd1161010857806323b872dd1461023357806327e235e314610253578063313ce5671461028057806342290ff3146102ac578063462785ee146102c15780634f3e48911461030757600080fd5b806306fdde0314610150578063095ea7b31461017b57806318160ddd146101ab5780631863c589146101cf5780631865c57d146101f157806321670f2214610213575b600080fd5b34801561015c57600080fd5b506101656104b7565b60405161017291906113de565b60405180910390f35b34801561018757600080fd5b5061019b610196366004611414565b610545565b6040519015158152602001610172565b3480156101b757600080fd5b506101c160025481565b604051908152602001610172565b3480156101db57600080fd5b506101ef6101ea36600461143e565b6105b2565b005b3480156101fd57600080fd5b5061020661068b565b60405161017291906114a7565b34801561021f57600080fd5b506101ef61022e366004611414565b6106e7565b34801561023f57600080fd5b5061019b61024e3660046114ec565b610772565b34801561025f57600080fd5b506101c161026e366004611528565b60006020819052908152604090205481565b34801561028c57600080fd5b5060045461029a9060ff1681565b60405160ff9091168152602001610172565b3480156102b857600080fd5b506101c161091a565b3480156102cd57600080fd5b506102fa6102dc366004611528565b6001600160a01b031660009081526007602052604090205460ff1690565b6040516101729190611543565b34801561031357600080fd5b506101ef610322366004611556565b610949565b34801561033357600080fd5b506101c161034236600461156f565b600160209081526000928352604080842090915290825290205481565b34801561036b57600080fd5b506101c161037a366004611528565b6001600160a01b031660009081526020819052604090205490565b3480156103a157600080fd5b506103aa6109cb565b60405161017291906115a2565b3480156103c357600080fd5b50426101c1565b3480156103d657600080fd5b50610165610bd9565b6101ef610be6565b3480156103f357600080fd5b5061019b610402366004611414565b610ce8565b34801561041357600080fd5b506101ef610422366004611642565b610e8e565b34801561043357600080fd5b506102fa610f72565b34801561044857600080fd5b506101ef610457366004611556565b610fd2565b34801561046857600080fd5b506101c161047736600461156f565b6001600160a01b03918216600090815260016020908152604080832093909416825291909152205490565b3480156104ae57600080fd5b506101ef610fec565b600380546104c4906116f3565b80601f01602080910402602001604051908101604052809291908181526020018280546104f0906116f3565b801561053d5780601f106105125761010080835404028352916020019161053d565b820191906000526020600020905b81548152906001019060200180831161052057829003601f168201915b505050505081565b3360008181526001602090815260408083206001600160a01b038716808552925280832085905551919290917f8c5be1e5ebec7d5bd14f71427d1e84f3dd0314c0f7b2291e5b200ac8c7c3b925906105a09086815260200190565b60405180910390a35060015b92915050565b60023360009081526007602052604090205460ff1660038111156105d8576105d8611473565b1461062a5760405162461bcd60e51b815260206004820152601a60248201527f796f7520646f6e277420707269766174652070726f766964657200000000000060448201526064015b60405180910390fd5b6000828152600f6020818152604080842060028101546001600160a01b03168552600d8352908420805460ff1916861515179055858452919052818155906106756001830182611303565b5060020180546001600160a01b03191690555050565b610693611340565b6040518060a0016040528060085481526020016106ad4290565b81526020016106ba61091a565b815260200160095481526020016106cf610f72565b60038111156106e0576106e0611473565b9052919050565b60033360009081526007602052604090205460ff16600381111561070d5761070d611473565b146107565760405162461bcd60e51b81526020600482015260196024820152783cb7ba903237b713ba10383ab13634b190383937bb34b232b960391b6044820152606401610621565b60065461076d906001600160a01b03168383610772565b505050565b600083826000610780610f72565b9050600181600381111561079657610796611473565b10156107b45760405162461bcd60e51b81526004016106219061172d565b6006546000906001600160a01b0380861691160361085457601360008360038111156107e2576107e2611473565b60038111156107f3576107f3611473565b8152602001908152602001600020549050826013600084600381111561081b5761081b611473565b600381111561082c5761082c611473565b815260200190815260200160002060008282546108499190611768565b909155506108c69050565b600182600381111561086857610868611473565b0361089f576006546001600160a01b0385811691161461089a5760405162461bcd60e51b81526004016106219061172d565b6108c6565b60018260038111156108b3576108b3611473565b036108c157506014546108c6565b506015545b8083106109005760405162461bcd60e51b81526020600482015260086024820152670e8dede40daeac6d60c31b6044820152606401610621565b61090b888888611057565b50600198975050505050505050565b600060085460000361092c5750600090565b60095461093a90603c61177b565b6109449042611792565b905090565b60033360009081526007602052604090205460ff16600381111561096f5761096f611473565b146109b85760405162461bcd60e51b81526020600482015260196024820152783cb7ba903237b713ba10383ab13634b190383937bb34b232b960391b6044820152606401610621565b600a546109c5908261177b565b600c5550565b60606000805b600e54811015610a1b576000818152600f60205260409020600201546001600160a01b031615610a095781610a05816117a5565b9250505b80610a13816117a5565b9150506109d1565b508067ffffffffffffffff811115610a3557610a3561162c565b604051908082528060200260200182016040528015610a9357816020015b610a806040518060600160405280600081526020016060815260200160006001600160a01b031681525090565b815260200190600190039081610a535790505b5091506000805b600e54811015610bd3576000818152600f60205260409020600201546001600160a01b031615610bc157600f600082815260200190815260200160002060405180606001604052908160008201548152602001600182018054610afc906116f3565b80601f0160208091040260200160405190810160405280929190818152602001828054610b28906116f3565b8015610b755780601f10610b4a57610100808354040283529160200191610b75565b820191906000526020600020905b815481529060010190602001808311610b5857829003601f168201915b5050509183525050600291909101546001600160a01b03166020909101528451859084908110610ba757610ba76117be565b60200260200101819052508180610bbd906117a5565b9250505b80610bcb816117a5565b915050610a9a565b50505090565b600580546104c4906116f3565b6000610bf0610f72565b90506000816003811115610c0657610c06611473565b11610c235760405162461bcd60e51b81526004016106219061172d565b336000908152600d602052604090205460ff16610c93576002816003811115610c4e57610c4e611473565b11610c935760405162461bcd60e51b8152602060048201526015602482015274119c9959481cd85b19481b9bdd081cdd185c9d1959605a1b6044820152606401610621565b60006002826003811115610ca957610ca9611473565b14610cb657600c54610cba565b600b545b90506000610cc882346117d4565b600654909150610ce2906001600160a01b03163383610772565b50505050565b600033826000610cf6610f72565b90506001816003811115610d0c57610d0c611473565b1015610d2a5760405162461bcd60e51b81526004016106219061172d565b6006546000906001600160a01b03808616911603610dca5760136000836003811115610d5857610d58611473565b6003811115610d6957610d69611473565b81526020019081526020016000205490508260136000846003811115610d9157610d91611473565b6003811115610da257610da2611473565b81526020019081526020016000206000828254610dbf9190611768565b90915550610e3c9050565b6001826003811115610dde57610dde611473565b03610e15576006546001600160a01b03858116911614610e105760405162461bcd60e51b81526004016106219061172d565b610e3c565b6001826003811115610e2957610e29611473565b03610e375750601454610e3c565b506015545b808310610e765760405162461bcd60e51b81526020600482015260086024820152670e8dede40daeac6d60c31b6044820152606401610621565b610e8087876111fe565b506001979650505050505050565b336000908152600d602052604090205460ff1615610eee5760405162461bcd60e51b815260206004820152601860248201527f796f7520616c726561647920696e2077686974656c69737400000000000000006044820152606401610621565b60408051606081018252600e54808252602080830185815233848601526000928352600f9091529290208151815591519091906001820190610f309082611844565b5060409190910151600290910180546001600160a01b0319166001600160a01b03909216919091179055600e8054906000610f6a836117a5565b919050555050565b6000600854600003610f845750600090565b61012c600854610f9261091a565b610f9c9190611768565b1015610fa85750600190565b610258600854610fb661091a565b610fc09190611768565b1015610fcc5750600290565b50600390565b8060096000828254610fe49190611792565b909155505050565b60013360009081526007602052604090205460ff16600381111561101257611012611473565b146110515760405162461bcd60e51b815260206004820152600f60248201526e3cb7ba903237b713ba1037bbb732b960891b6044820152606401610621565b42600855565b6001600160a01b03831660008181526001602090815260408083203384528252808320549383529082905281205490919083118015906110975750828110155b6111095760405162461bcd60e51b815260206004820152603960248201527f746f6b656e2062616c616e6365206f7220616c6c6f77616e6365206973206c6f60448201527f776572207468616e20616d6f756e7420726571756573746564000000000000006064820152608401610621565b6001600160a01b03841660009081526020819052604081208054859290611131908490611792565b90915550506001600160a01b0385166000908152602081905260408120805485929061115e908490611768565b90915550506000198110156111a6576001600160a01b0385166000908152600160209081526040808320338452909152812080548592906111a0908490611768565b90915550505b836001600160a01b0316856001600160a01b03167fddf252ad1be2c89b69c2b068fc378daa952ba7f163c4a11628f55a4df523b3ef856040516111eb91815260200190565b60405180910390a3506001949350505050565b336000908152602081905260408120548211156112755760405162461bcd60e51b815260206004820152602f60248201527f746f6b656e2062616c616e6365206973206c6f776572207468616e207468652060448201526e1d985b1d59481c995c5d595cdd1959608a1b6064820152608401610621565b3360009081526020819052604081208054849290611294908490611768565b90915550506001600160a01b038316600090815260208190526040812080548492906112c1908490611792565b90915550506040518281526001600160a01b0384169033907fddf252ad1be2c89b69c2b068fc378daa952ba7f163c4a11628f55a4df523b3ef906020016105a0565b50805461130f906116f3565b6000825580601f1061131f575050565b601f01602090049060005260206000209081019061133d919061137f565b50565b6040518060a00160405280600081526020016000815260200160008152602001600081526020016000600381111561137a5761137a611473565b905290565b5b808211156113945760008155600101611380565b5090565b6000815180845260005b818110156113be576020818501810151868301820152016113a2565b506000602082860101526020601f19601f83011685010191505092915050565b6020815260006113f16020830184611398565b9392505050565b80356001600160a01b038116811461140f57600080fd5b919050565b6000806040838503121561142757600080fd5b611430836113f8565b946020939093013593505050565b6000806040838503121561145157600080fd5b823591506020830135801515811461146857600080fd5b809150509250929050565b634e487b7160e01b600052602160045260246000fd5b6004811061133d57634e487b7160e01b600052602160045260246000fd5b600060a0820190508251825260208301516020830152604083015160408301526060830151606083015260808301516114df81611489565b8060808401525092915050565b60008060006060848603121561150157600080fd5b61150a846113f8565b9250611518602085016113f8565b9150604084013590509250925092565b60006020828403121561153a57600080fd5b6113f1826113f8565b6020810161155083611489565b91905290565b60006020828403121561156857600080fd5b5035919050565b6000806040838503121561158257600080fd5b61158b836113f8565b9150611599602084016113f8565b90509250929050565b60006020808301818452808551808352604092508286019150828160051b87010184880160005b8381101561161e57603f19898403018552815160608151855288820151818a8701526115f782870182611398565b928901516001600160a01b03169589019590955250948701949250908601906001016115c9565b509098975050505050505050565b634e487b7160e01b600052604160045260246000fd5b60006020828403121561165457600080fd5b813567ffffffffffffffff8082111561166c57600080fd5b818401915084601f83011261168057600080fd5b8135818111156116925761169261162c565b604051601f8201601f19908116603f011681019083821181831017156116ba576116ba61162c565b816040528281528760208487010111156116d357600080fd5b826020860160208301376000928101602001929092525095945050505050565b600181811c9082168061170757607f821691505b60208210810361172757634e487b7160e01b600052602260045260246000fd5b50919050565b6020808252600b908201526a139bdd081cdd185c9d195960aa1b604082015260600190565b634e487b7160e01b600052601160045260246000fd5b818103818111156105ac576105ac611752565b80820281158282048414176105ac576105ac611752565b808201808211156105ac576105ac611752565b6000600182016117b7576117b7611752565b5060010190565b634e487b7160e01b600052603260045260246000fd5b6000826117f157634e487b7160e01b600052601260045260246000fd5b500490565b601f82111561076d57600081815260208120601f850160051c8101602086101561181d5750805b601f850160051c820191505b8181101561183c57828155600101611829565b505050505050565b815167ffffffffffffffff81111561185e5761185e61162c565b6118728161186c84546116f3565b846117f6565b602080601f8311600181146118a7576000841561188f5750858301515b600019600386901b1c1916600185901b17855561183c565b600085815260208120601f198616915b828110156118d6578886015182559484019460019091019084016118b7565b50858210156118f45787850151600019600388901b60f8161c191681555b5050505050600190811b0190555056fea2646970667358221220664a2d8f977030c49aadad259fa38549832485ee61c06eac885a3c77b6566b1864736f6c63430008130033",
    "sourcePath": "c:/Users/maxek/Desktop/WSR/nice-example/contracts/CMON.sol",
    "compiler": {
        "name": "solc",
        "version": "0.8.19+commit.7dd6d404"
    },
    "functionHashes": {
        "allowance(address,address)": "dd62ed3e",
        "allowed(address,address)": "5c658165",
        "answerRequest(uint256,bool)": "1863c589",
        "approve(address,uint256)": "095ea7b3",
        "balanceOf(address)": "70a08231",
        "balances(address)": "27e235e3",
        "buy()": "a6f2ae3a",
        "calcPhase()": "c9bcee3d",
        "changePublicCost(uint256)": "4f3e4891",
        "decimals()": "313ce567",
        "getRequests()": "8813ce12",
        "getRoleID(address)": "462785ee",
        "getState()": "1865c57d",
        "init()": "e1c7392a",
        "name()": "06fdde03",
        "reward(address,uint256)": "21670f22",
        "sendRequest(string)": "b2adc1d9",
        "symbol()": "95d89b41",
        "time_now()": "916e967f",
        "time_system()": "42290ff3",
        "totalSupply()": "18160ddd",
        "transfer(address,uint256)": "a9059cbb",
        "transferFrom(address,address,uint256)": "23b872dd",
        "upDif(uint256)": "d34477d1"
    },
    "gasEstimates": {
        "creation": {
            "codeDepositCost": "1291600",
            "executionCost": "infinite",
            "totalCost": "infinite"
        },
        "external": {
            "allowance(address,address)": "infinite",
            "allowed(address,address)": "infinite",
            "answerRequest(uint256,bool)": "infinite",
            "approve(address,uint256)": "24546",
            "balanceOf(address)": "2585",
            "balances(address)": "2567",
            "buy()": "infinite",
            "calcPhase()": "infinite",
            "changePublicCost(uint256)": "26876",
            "decimals()": "2380",
            "getRequests()": "infinite",
            "getRoleID(address)": "2730",
            "getState()": "infinite",
            "init()": "24604",
            "name()": "infinite",
            "reward(address,uint256)": "infinite",
            "sendRequest(string)": "infinite",
            "symbol()": "infinite",
            "time_now()": "280",
            "time_system()": "infinite",
            "totalSupply()": "2363",
            "transfer(address,uint256)": "infinite",
            "transferFrom(address,address,uint256)": "infinite",
            "upDif(uint256)": "24611"
        }
    }
}